:100000000C9465060C948D060C948D060C94221AA3
:100010000C94FD190C94D8190C948D060C948D0633
:100020000C948D060C948D060C948D060C948D0604
:100030000C948D060C948D060C948D060C948D06F4
:100040000C9417180C948D060C9487180C94611856
:100050000C948D060C948D060C948D060C948D06D4
:100060000C94B9180C948D06207F02020000000049
:100070000000000000000000000000000000000080
:100080000000000000000000000000000000000070
:1000900070F8FCFCFCFCF8700000000000000000A0
:1000A00000001B1B1B1B0000000000000000060ED0
:1000B0001E1E000000001E1E0E06000000000000B4
:1000C000000000000000000000000000002020F8F8
:1000D000F8F820202020F8F8F82020000004041F61
:1000E0001F1F040404041F1F1F04040000003078B5
:1000F00078FCCF87878F9C18181000000000040C34
:100100000C1C787070791F0F0F0600000000303053
:1001100030300080C0E0F070301000000000101897
:100120001C1E0F07030118181818000000001038D3
:10013000B8FCECC4EC7C38B89080800000060F0F4F
:100140001F1911111B0F0F1F1F19100000000010A5
:100150001E1E1E0E00000000000000000000000037
:10016000000000000000000000000000000000008F
:10017000E0F0F8FC1C0C040000000000000000008F
:1001800003070F1F1C1810000000000000000000F3
:10019000000000040C1CFCF8F0E00000000000006F
:1001A00000000010181C1F0F070300000080A0A013
:1001B000E0E0C0C0C0C0E0E0A0A0800000000202FB
:1001C000030301010101030302020000008080809B
:1001D0008080F0F0F0F080808080800000000000DF
:1001E00000000707070700000000000000000000F3
:1001F00000000000000000000000000000000000FF
:1002000000203C3C1C0C00000000000000808080AE
:10021000808080808080808080808000000000005E
:1002200000000000000000000000000000000000CE
:1002300000000000000000000000000000000000BE
:10024000000018181818000000000000000000004E
:10025000000080C0E0F07838180800000000080CAA
:100260000E0F070301000000000000000000F0F87E
:10027000F8FC0C84C46CFCF8F8F000000000070FD8
:100280000F1F1B1110181F0F0F0700000000101088
:100290001818FCFCFCFC000000000000000010101E
:1002A00010101F1F1F1F1010101000000000080862
:1002B0000C0C040484CCFCF8783000000000181CFE
:1002C0001E1E171311111818181800000000080836
:1002D0000C0C84848484CCFC7878300000000808FE
:1002E000181810101010191F0F0F0600000080C002
:1002F000E0F0783CFCFCFCFC000000000000010188
:10030000010111111F1F1F1F1111000000007C7C33
:100310007C7C44444444C4C4848404000000080831
:10032000181810101010181F0F0F07000000F0F819
:10033000F8FC8C8484848484000000000000070F93
:100340000F1F18101010191F0F0F060000000C0CC3
:100350000C0C0484C4E4FC7C3C1C00000000000085
:1003600000001F1F1F1F0000000000000000307869
:1003700078FCCC848484CCFC787830000000060FB4
:100380000F1F19101010191F0F0F060000003078F2
:1003900078FCCC8484848CFCF8F8F0000000000029
:1003A000101010101010181F0F0F07000000000091
:1003B000000030303030000000000000000000007D
:1003C00000000C0C0C0C00000000000000000000FD
:1003D000000030303030000000000000000000005D
:1003E00000101C1C1C0C000000000000000080C05D
:1003F000E0F0783C1C0C040000000000000000014C
:1004000003070F1E1C1810000000000000004040F1
:100410004040404040404040404000000000020258
:1004200002020202020202020202000000000000B8
:1004300000040C1C3C78F0E0C080000000000000CC
:100440000010181C1E0F0703010000000000101808
:10045000181C0C84C4ECFC7838100000000000006C
:1004600000001B1B1B1B00000000000000F0F8F840
:10047000FC0CC4E4E424243CFCFCF80000070F0F4F
:100480001F18111313121212131301000000C0E001
:10049000F0F83C1C1C3CF8F0E0C0000000001F1FFE
:1004A0001F1F010101011F1F1F1F0000000404FC8A
:1004B000FCFCFC848484CCFC787830000010101F95
:1004C0001F1F1F101010191F0F0F06000000F0F85B
:1004D000F8FC0C0404040C1C181810000000070F92
:1004E0000F1F18101010181C0C0C0400000404FC42
:1004F000FCFCFC0404040CFCF8F8F0000010101FD5
:100500001F1F1F101010181F0F0F0700000404FCFE
:10051000FCFCFC8484C4C4040C1C1C000010101FD0
:100520001F1F1F1010111110181C1C00000404FCC8
:10053000FCFCFC8484C4C4040C1C1C000010101FB0
:100540001F1F1F1010010100000000000000F0F844
:10055000F8FC0C0404040C1C181810000000070F11
:100560000F1F18101011191F0F1F1F000000FCFC97
:10057000FCFC8080808080FCFCFCFC0000001F1FD5
:100580001F1F00000000001F1F1F1F0000000000B1
:100590000404FCFCFCFC040400000000000000005B
:1005A00010101F1F1F1F101000000000000000008F
:1005B0000000040404FCFCFCFC0404000000040C27
:1005C0000C1C1818181F0F0F07000000000404FC73
:1005D000FCFCFCE0F0F83C1C0C0400000010101FB8
:1005E0001F1F1F0103070F1E1C181000000404FC2E
:1005F000FCFCFC0404000000000000000010101FC0
:100600001F1F1F1010101010181C1C0000FCFCFCF9
:10061000FC3870E0E07038FCFCFCFC00001F1F1F81
:100620001F0000000000001F1F1F1F000000FCFC37
:10063000FCFC70E0C08000FCFCFCFC0000001F1F04
:100640001F1F00000103071F1F1F1F000000F0F8FD
:10065000F8FC0C0404040CFCF8F8F0000000070F90
:100660000F1F18101010181F0F0F0700000404FCB4
:10067000FCFCFC848484CCFC787830000010101FD3
:100680001F1F1F1010000000000000000000F0F805
:10069000F8FC0C0404040CFCF8F8F0000000070F50
:1006A0000F1F1812161E1C3F3F2F0700000404FCEA
:1006B000FCFCFC848484CCFC787830000010101F93
:1006C0001F1F1F0103070F1E1C18100000103838D1
:1006D0007C6CC4C484840C1C1818100000040C0C1E
:1006E0001C18101011111B1F0E0E0400001C1C0CF6
:1006F0000404FCFCFCFC04040C1C1C0000000000B6
:1007000010101F1F1F1F1010000000000000FCFC35
:10071000FCFC0000000000FCFCFCFC000000070FDB
:100720000F1F18101010181F0F0F07000000FCFCFF
:10073000FCFC00000000FCFCFCFC000000000103CD
:10074000070F1E1C1C1E0F070301000000FCFCFC11
:10075000FC000000000000FCFCFCFC0000070F1F78
:100760001F1C0E07070E1C1F1F0F070000000C1C8C
:100770003C7CF0E0E0F07C3C1C0C00000000181C0D
:100780001E1F070303071F1E1C18000000003C7CEF
:10079000FCFCC08080C0FCFC7C3C00000000000031
:1007A00010111F1F1F1F11100000000000001C1C53
:1007B0000C0484C4E4F47C3C1C0C00000000181CF5
:1007C0001E1F1713111010181C1C00000000000041
:1007D000FCFCFCFC04040404000000000000000019
:1007E0001F1F1F1F1010101000000000000008182D
:1007F0003878F0E0C0800000000000000000000039
:100800000000000103070F0E0C08000000000000AC
:1008100004040404FCFCFCFC0000000000000000D8
:10082000101010101F1F1F1F0000000000001018E4
:100830001C1E0F07070F1E1C1810000000000000F0
:1008400000000000000000000000000000000000A8
:1008500000000000000000000000000000404040D8
:100860004040404040404040404040400000000088
:10087000000003070707040000000000000000005C
:100880000000000000000000000000000000000068
:100890004040404040C0C0808000000000000E0E7C
:1008A0001F1F1111110F0F1F1F1010000000040453
:1008B000FCFCFCFC4040C0C0808000000000101028
:1008C0001F1F0F0F1010101F1F0F0F000000808040
:1008D000C0C04040404040C0C080800000000F0FBA
:1008E0001F1F1010101010181808080000000080BA
:1008F00080C0C04444FCFCFCFC00000000000F0F62
:100900001F1F1010100F0F1F1F10100000008080FD
:10091000C0C04040404040C0C080800000000F0F79
:100920001F1F12121212121B1B0B0B0000008080E3
:10093000F8F8FCFC84848C8C18180000000010105F
:100940001F1F1F1F1010000000000000000080800B
:10095000C0C04040408080C0C04040000000272709
:100960006F6F4848487F7F3F3F000000000004044D
:10097000FCFCFCFC804040C0C080800000001010E7
:100980001F1F1F1F0000001F1F1F1F00000000006F
:1009900000004040D8D8D8D8000000000000000077
:1009A000000010101F1F1F1F10100000000000008B
:1009B000000000004040D8D8D8D800000000103017
:1009C0003070604040607F3F3F1F00000000040423
:1009D000FCFCFCFC000080C0C0C040000000101007
:1009E0001F1F1F1F02070F1F1D181000000000000F
:1009F00000000404FCFCFCFC0000000000000000FF
:100A0000000010101F1F1F1F1010000000C0C0C0EA
:100A1000C0C0C08080C0C0C0C0C08000001F1F1FF9
:100A20001F001F1F1F1F001F1F1F1F00000040402F
:100A3000C0C080804040C0C0C080000000000000F6
:100A40001F1F1F1F0000001F1F1F1F00000000802E
:100A500080C0C0404040C0C0808000000000070F40
:100A60000F1F18101010181F0F0F07000000404034
:100A7000C0C080804040C0C0808000000000404076
:100A80007F7F7F7F48480C0F07070300000000802E
:100A900080C0C040408080C0C040400000000307CC
:100AA000070F0C08487F7F7F7F40400000004040D8
:100AB000C0C08080C04040C0C080800000001010D6
:100AC0001F1F1F1F1010000000000000000080808A
:100AD000C0C04040404040C0C080800000000909C4
:100AE0001B1B12121212121E1E0C0C000040404062
:100AF00040F0F8FCFC4040404000000000000000D6
:100B0000000F0F1F1F101018180808000000C0C0A9
:100B1000C0C0000000C0C0C0C000000000000F0F37
:100B20001F1F1010100F0F1F1F10100000C0C0C09B
:100B3000C0000000000000C0C0C0C00000030307E8
:100B4000070C0C18180C0C070703030000C0C0C0EA
:100B5000C0000000000000C0C0C0C00000070F1FA0
:100B60001F181C0E0E1C181F1F0F0700000040400E
:100B7000C0C080000080C0C04040000000001010D5
:100B8000181D0F07070F1D18101000000000C0C02F
:100B9000C0C00000000000C0C0C0C00000000307CB
:100BA000474F4C484848687F3F3F1F000000C0C087
:100BB000C0C040404040C0C0C0C000000000181885
:100BC0001C1C161613131919181800000000808039
:100BD0008080F0F8FC7C0C0404040000000000009D
:100BE0000000070F1F1F1810101000000000000069
:100BF00000007C7C7C7C0000000000000000000005
:100C000000001F1F1F1F0000000000000000040460
:100C1000040C7CFCF8F08080808000000000101044
:100C200010181F1F0F070000000000000000080838
:100C30000C0C04040C08080C0C0404000000000058
:100C400000000000000000000000000000008080A4
:100C5000C0C0606030306060C0C0808000000303AE
:100C60000303020202020202030303030000000066
:100C700000240027002A0000000000250028002B87
:100C800000000000002300260029000404040404DE
:100C90000404040202020202020303030303030129
:100CA0000204081020408001020408102001020400
:100CB00008102000000008000201000003040700E3
:100CC0000000000000000000471A11241FBECFEFF3
:100CD000D8E0DEBFCDBF12E0A0E0B1E0E2E7F3E490
:100CE00002C005900D92A633B107D9F725E0A6E31F
:100CF000B2E001C01D92AA30B207E1F716E0C5E6E6
:100D0000D6E004C02197FE010E94A121C436D1077C
:100D1000C9F70E94FC1A0C94B7210C94000080E0E3
:100D20000895CF93DF9300D000D01F92CDB7DEB7E8
:100D30006C834D8341E04B833A832983DC01149615
:100D4000ED91FC919E012F5F3F4F6FE009950F9051
:100D50000F900F900F900F90DF91CF910895662321
:100D600029F06A3019F0862F90E008958FEF9FEFF9
:100D700008959B01DC011896ED91FC9141E067E13B
:100D80000994833081F028F4813099F08230A9F001
:100D900008958730A9F08830C9F08430B1F480918B
:100DA00080008F7D03C0809180008F7780938000CA
:100DB000089584B58F7784BD089584B58F7DFBCF6A
:100DC0008091B0008F778093B00008958091B0003B
:100DD0008F7DF9CFCF93DF93282F30E0F901ED54C9
:100DE000F34F8491F901E156F34FD491F901E5579E
:100DF000F34FC491CC23A1F081110E94C106EC2FC6
:100E0000F0E0EE0FFF1FEF57F34FA591B491EC9177
:100E1000ED2381E090E009F480E0DF91CF91089527
:100E200080E090E0FACF1F93CF93DF93282F30E03C
:100E3000F901ED54F34F8491F901E156F34FD49148
:100E4000F901E557F34FC491CC23A9F0162F811176
:100E50000E94C106EC2FF0E0EE0FFF1FE958F34FA0
:100E6000A591B4918FB7F894EC91111108C0D09569
:100E7000DE23DC938FBFDF91CF911F910895DE2B8E
:100E8000F8CFCF93DF9390E0FC01E156F34F24912C
:100E90008557934FFC0184918823D1F090E0880F0F
:100EA000991FFC01E359F34FA591B491FC01E95856
:100EB000F34FC591D491623071F49FB7F8943C918F
:100EC000822F809583238C93E8812E2B28839FBFCC
:100ED000DF91CF9108958FB7F894EC912E2B2C933E
:100EE0008FBFF6CF3FB7F89480911A0490911B04FE
:100EF000A0911C04B0911D0426B5A89B05C02F3FEE
:100F000019F00196A11DB11D3FBFBA2FA92F982F2F
:100F10008827BC01CD01620F711D811D911D42E02A
:100F2000660F771F881F991F4A95D1F708958F92F2
:100F30009F92AF92BF92CF92DF92EF92FF926B019E
:100F40007C010E9472074B015C01C114D104E104D1
:100F5000F104B9F00E947207681979098A099B099E
:100F6000683E73408105910580F321E0C21AD108E3
:100F7000E108F10888EE880E83E0981EA11CB11CE0
:100F8000E4CFFF90EF90DF90CF90BF90AF909F9015
:100F90008F900895AF92BF92CF92DF92EF92FF921F
:100FA0000F931F93CF93DF936C017B018B01040F91
:100FB000151FEB015E01AE18BF08C017D10759F02D
:100FC0006991D601ED91FC910190F081E02DC6016F
:100FD0000995892B79F7C501DF91CF911F910F9169
:100FE000FF90EF90DF90CF90BF90AF900895FC01FD
:100FF000538D448D252F30E0842F90E0821B930B7E
:10100000541710F0CF96089501970895FC01918D23
:10101000828D981761F0A28DAE0FBF2FB11D5D9626
:101020008C91928D9F5F9F73928F90E008958FEFC8
:101030009FEF0895FC01918D828D981731F0828D7C
:10104000E80FF11D858D90E008958FEF9FEF0895D3
:10105000FC01918D228D892F90E0805C9F4F821B37
:1010600091098F73992708958FE194E00E942808D1
:1010700021E0892B09F420E0822F089580E090E0A0
:10108000892B29F00E94340881110C9400000895E6
:10109000FC01A48DA80FB92FB11DA35ABF4F2C91ED
:1010A000848D90E001968F739927848FA689B789E4
:1010B0002C93A089B1898C91837080648C93938DDB
:1010C000848D981306C00288F389E02D80818F7D7E
:1010D00080830895EF92FF920F931F93CF93DF9336
:1010E000EC0181E0888F9B8D8C8D98131AC0E88964
:1010F000F989808185FF15C09FB7F894EE89FF8933
:101100006083E889F98980818370806480839FBFD0
:1011100081E090E0DF91CF911F910F91FF90EF90D0
:101120000895F62E0B8D10E00F5F1F4F0F731127E0
:10113000E02E8C8D8E110CC00FB607FCFACFE8891B
:10114000F989808185FFF5CFCE010E944808F1CF53
:10115000EB8DEC0FFD2FF11DE35AFF4FF0829FB78F
:10116000F8940B8FEA89FB8980818062CFCFCF937F
:10117000DF93EC01888D8823B9F0AA89BB89E889BF
:10118000F9898C9185FD03C0808186FD0DC00FB665
:1011900007FCF7CF8C9185FFF2CF808185FFEDCFE3
:1011A000CE010E944808E9CFDF91CF9108952091A8
:1011B0001103260F3327331F21323105ECF4209120
:1011C0003703FC0190E080E0243069F082E008956C
:1011D000A09111032191AC0141515D4FA40FB52F96
:1011E000B11D2C930196861798F380911103680F17
:1011F0006093110380E0089581E008951092370311
:1012000081E0809339031092380361E082E10E940B
:10121000130761E083E10E941307E9EBF0E08081AE
:101220008E7F808380818D7F808388E48093B80067
:1012300085E48093BC000895CF93DF9391E0909371
:10124000EE028823B9F0C091B800D091BA00809125
:10125000BC008A7B8093BC0060E082E10E9413079F
:1012600060E083E10E9413070E94FE08D093BA0059
:10127000C093B800DF91CF9108950895089508951F
:10128000E091E6028091E502E81730F4F0E0EB53DC
:10129000FD4F808190E008958FEF9FEF089590912A
:1012A000E6028091E5022FEF3FEF981748F4E92F0F
:1012B000F0E0EB53FD4F208130E09F5F9093E6021A
:1012C000C90108958091E5029091E602891B990B6E
:1012D0000895CF92DF92EF92FF920F931F93CF93D7
:1012E000DF937C01CB018A012091C402222389F083
:1012F000EB016B01C40ED51ECC15DD0569F06991BB
:10130000D701ED91FC910190F081E02DC701099585
:10131000F3CF642F0E94D708C801DF91CF911F91AE
:101320000F91FF90EF90DF90CF900895CF93DF93D0
:101330001F92CDB7DEB769832091C4022223F9F052
:101340002091E702203258F021E030E0FC013383A5
:10135000228390E080E00F90DF91CF9108958091FB
:10136000E802E82FF0E0EC55FD4F998190838F5F04
:101370008093E8028093E70281E090E0ECCF61E0A7
:10138000CE0101960E94D708F7CF0F931F93E091EB
:10139000DE03F091DF039B01AC01225031094109CA
:1013A000510986819781A085B1850297A109B1096C
:1013B000281739074A075B0778F4A281B0E00E943A
:1013C00051210289138924893589600F711F821F79
:1013D000931F1F910F91089560E070E0CB01F9CF4A
:1013E0000F931F93CF93DF93EC01E091DE03F09115
:1013F000DF03198218826C817D818E819F8161302B
:1014000071058105910581F106811781208531855E
:10141000601771078207930738F56115710581051B
:10142000910539F42081233021F466857785808900
:101430009189688779878A879B87611571058105FE
:10144000910569F00E94C5096C877D878E879F870B
:1014500090E080E0DF91CF911F910F910895668514
:10146000778580899189F0CF81E090E0F3CF8EBDC0
:101470000DB407FEFDCF08958FEF0E94370A8EB599
:101480000895FF920F931F93CF93DF93C82FD42F0C
:10149000152F062FF72E80915D03811139C083E54A
:1014A0008CBD1DBCC7FF09C040E050E0BA0187E712
:1014B0000E94410A823030F5CF772A9A0E943C0A76
:1014C0002A980E943C0A8C2F0E94370A8F2D0E9476
:1014D000370A802F0E94370A812F0E94370A8D2FEA
:1014E0000E94370A85E9C03421F087E8C83409F042
:1014F00081E00E94370ACAE00E943C0A87FF02C0CE
:10150000C150D1F7DF91CF911F910F91FF900895B6
:1015100080E58CBD81E08DBDC5CFCF92DF92EF928B
:10152000FF920F931F93CF93DF937C01690180910A
:101530005D0383FD07C089E0440F551F661F771FB9
:101540008A95D1F781E50E94410A811108C0C0E463
:10155000DCE90E943C0A8F3F29F42197D1F7C1E0D2
:10156000D0E022C08E3FD9F7C2E0D2E0C01BD10B41
:10157000CC19DD0981E0C81AD10818F00E943C0A94
:10158000F9CFE114F104E9F00E0D1F1D0E943C0A91
:10159000F70181937F010E171F07C1F70E943C0AD4
:1015A0002197E1F7D0E0C0E02A9A0E943C0ACE01E0
:1015B000DF91CF911F910F91FF90EF90DF90CF902F
:1015C00008950E943C0A01501109D9F7E7CFCF9244
:1015D000DF92EF92FF920F931F93CF93DF93EC0173
:1015E0006A017B0102E010E02EEF31E00E948D0ADB
:1015F000892B31F58881998185359A4A59F526E3F9
:1016000030E0B701A601CE010E948D0A892B29F492
:10161000888199818634914489F002E010E022E5C6
:1016200030E0B701A601CE010E948D0A892BA1F4FA
:1016300081E0288139812634314419F480E001C0E9
:1016400083E0DF91CF911F910F91FF90EF90DF909A
:10165000CF90089582E0F5CF81E0F3CF4F925F9273
:101660006F927F92AF92BF92CF92DF92EF92FF92F2
:101670000F931F93CF93DF9300D000D0CDB7DEB789
:10168000623071058105910528F461E070E080E029
:1016900090E063C0A090DE03B090DF03F501C68048
:1016A000D780E084F1846C157D058E059F0568F771
:1016B0006B017C018081823009F462C0833009F4BF
:1016C0007BC0813011F72B0156944794460E571E6C
:1016D00092013170452C55244694712C612C428521
:1016E000538564857585440D551D661D771D02E083
:1016F00010E0CE0101962F3FF1E03F07E1F401E059
:1017000010E02FEF31E0CE0101960E948D0A892B67
:1017100009F0BBCFF50142855385648575854F5F20
:101720005F4F6F4F7F4F440D551D661D771D30E095
:1017300020E0CE0102960E948D0A892B09F0A5CFE8
:1017400069817A81C0FC02C07F7005C0E4E07695B3
:101750006795EA95E1F790E080E00F900F900F9089
:101760000F90DF91CF911F910F91FF90EF90DF903D
:10177000CF90BF90AF907F906F905F904F90089503
:101780009B013327220F331FCD2CDE2CEF2CFF249F
:1017900042855385648575854C0D5D1D6E1D7F1DCD
:1017A00002E010E0CE0101960E948D0A892B09F01B
:1017B0006CCF69817A81CFCF9B012F773327220F9E
:1017C000331F220F331F97E0F694E794D794C79402
:1017D0009A95D1F742855385648575854C0D5D1DBD
:1017E0006E1D7F1D04E010E0CE0101960E948D0A5F
:1017F000892B09F04ACF69817A818B819C819F7006
:10180000ACCF4F925F926F927F928F929F92AF92E6
:10181000BF92CF92DF92EF92FF92CF93DF9300D0EF
:1018200000D000D0CDB7DEB72091DE033091DF03CA
:101830003E832D832115310509F40CC1D901119680
:101840002C91119720FF09C15A96CD90DD90ED9013
:10185000FC905D976C157D058E059F0510F46B015E
:101860007C01ED81FE8146885788608C718C168AD8
:10187000178A108E118EC114D104E104F10409F409
:10188000E6C08280912CB12CA12C39E0880C991CE7
:10189000AA1CBB1C3A95D1F7411451046104710490
:1018A00009F470C0B1E04B1A510861087108C70112
:1018B000B6016150710981099109A50194010E9445
:1018C0005C2129833A834B835C83C301B201A50168
:1018D00094010E945C2189819A81AB81BC8182172D
:1018E0009307A407B50708F44DC088279927DC01A2
:1018F00088199909AA09BB0984219521A621B72134
:10190000ED81FE81868B978BA08FB18FC81AD90A83
:10191000EA0AFB0A62A173A184A195A18C149D041B
:10192000AE04BF0408F058C00E942E0B623071054F
:101930008105910568F0AD81BE8116964D905D9050
:101940006D907C901997641575058605970540F193
:10195000ED81FE81118281E090E026960FB6F89429
:10196000DEBF0FBECDBFDF91CF91FF90EF90DF9034
:10197000CF90BF90AF909F908F907F906F905F902F
:101980004F900895AD81BE815E966D917D918D9150
:101990009C919197FD0162A373A384A395A3BECFED
:1019A000AD81BE8192966D937D938D939C93959717
:1019B00056964D905D906D907C905997480C591CAF
:1019C0006A1C7B1CFD01468A578A608E718EC8187E
:1019D000D908EA08FB08A2CFAD81BE8156968D904A
:1019E0009D90AD90BC905997C80CD91CEA1CFB1C6B
:1019F000FD01C68AD78AE08EF18E0E94C509AB012F
:101A0000BC01411551056105710529F4AD81BE8107
:101A100011961C92A0CFED81FE8182818150990B9D
:101A2000092E000CAA0BBB0B29E0F694E794D7947F
:101A3000C7942A95D1F78C219D21AE21BF21480F53
:101A4000591F6A1F7B1F46A357A360A771A790E089
:101A500080E083CF85E090E080CF84E090E07DCF90
:101A60006F927F928F929F92AF92BF92CF92DF92AE
:101A7000EF92FF920F931F93CF93DF934C017B0163
:101A80005A01C091DE03D091DF03FA011182108266
:101A900085E090E0209709F44AC0898180FFA2C0C8
:101AA0008A8D9B8DAC8DBD8D4E895F89688D798DBA
:101AB000841B950BA60BB70BA70170E060E08417A1
:101AC0009507A607B70708F47C01612C32E0732E56
:101AD000E114F10409F489C08E899F89A88DB98D1C
:101AE000AC01BD01517066277727452B462B472B4C
:101AF00009F04AC0DA80DA94AC01BD0129E076959C
:101B00006795579547952A95D1F7D42251F5892B9A
:101B10008A2B8B2BD9F46E8D7F8D88A199A1623091
:101B2000710581059105C8F4198281E090E0DF918B
:101B3000CF911F910F91FF90EF90DF90CF90BF90CA
:101B4000AF909F908F907F906F9008956AA17BA136
:101B50008CA19DA10E942E0BE2CF6AA37BA38CA334
:101B60009DA36AA17BA18CA19DA10E94C5096115BD
:101B7000710581059105C1F26D0D711D811D911DCC
:101B80006EA37FA388A799A72E893F893170C301CF
:101B9000821B930B67018E159F0508F46C014EA103
:101BA0005FA168A579A58601C4010E948D0A892BD1
:101BB00009F0BACF8E899F89A88DB98D8C0D9D1D96
:101BC000A11DB11D8E8B9F8BA88FB98F8C0C9D1C76
:101BD000EC18FD08F50180819181C80ED91ED182D3
:101BE000C08276CF84E090E0A2CF90E080E09FCFEB
:101BF000CF92DF92EF92FF920F931F93CF93DF93D9
:101C0000EC01088119810F5F1F4F59F483E090E0C8
:101C1000DF91CF911F910F91FF90EF90DF90CF90C8
:101C200008954C855D856E857F854115510561055B
:101C3000710561F3C8018F709927892BD9F4E09061
:101C4000DE03F090DF034F5F5F4F6F4F7F4F4C8796
:101C50005D876E877F87688579858A859B85F70193
:101C6000611571058105910551F4848195810817ED
:101C7000190760F61983088390E080E0C9CF2281BC
:101C8000E22FE150FF0BAF019801E4E03695279574
:101C9000EA95E1F724233523232B61F70E942E0BCD
:101CA0006230710581059105B0F0F701C680D780DB
:101CB000E084F1846C157D058E059F0508F0A6CFA4
:101CC000688779878A879B870E94C5096C877D878B
:101CD0008E879F87CFCF81E090E09ACF9F92AF927F
:101CE000BF92CF92DF92EF92FF920F931F93CF9309
:101CF000DF93EC015B016A01FA0180814F5F5F4F66
:101D00008032C9F38F3209F46A011C821D821E825F
:101D10001F82F601808150E2952E803208F0A5C026
:101D2000CE010E94F0097C01F5011082C701DF910C
:101D3000CF911F910F91FF90EF90DF90CF90BF90C8
:101D4000AF909F90089520E0E0E088E053C0C30E7C
:101D5000D11C81E0913208F080E01B968C93CE017B
:101D60000E94F0097C01892B09F7288139812F70A5
:101D7000332745E0220F331F4A95E1F74C855D85F7
:101D80006E857F8500E210E0C5010E948D0A892BD7
:101D900011F5F5018081882311F1838583FD10C041
:101DA0000A811B819501D801A801455F5F4F4A1741
:101DB0005B07C9F1F90161919F019D916917B9F321
:101DC000CE010E94F80D009781F27C01AFCF80E038
:101DD00090E0DC013DC0EE24E394F12CA7CF83E03A
:101DE000E82EF12CA3CF883009F0B1CF9BE0282F4B
:101DF000E32F892F31E03E0FEC0DFD2DF11D908179
:101E0000913208F4A4CF9F3209F4A1CF9E3259F346
:101E1000281708F09CCFFD01E20FF11D9083982F49
:101E200081E0820FE4CFF801938591117FCF84FF89
:101E3000D6CFE091DE03F091DF038081833039F665
:101E4000F50184899589B0E0A0E0DC019927882715
:101E5000F501428D538D70E060E0842B952BA62B0D
:101E6000B72B8C839D83AE83BF83AA81BB81FD0189
:101E7000CD010B968E179F0709F465CF9192FACF8B
:101E8000DC011A96ED91FC9130E020E00994CF92AC
:101E9000DF92FF920F931F93CF93DF9300D000D078
:101EA0001F92CDB7DEB78C011C8281E08B837A83D1
:101EB0006983D801ED91FC91F1881D82F801A08120
:101EC000B181C480D5809E012F5F3F4F50964C91C9
:101ED0006FE0C801F60109958D818F5F8D838F15A5
:101EE00068F30F900F900F900F900F90DF91CF91AC
:101EF0001F910F91FF90DF90CF900895DC0116960F
:101F0000ED91FC9130E020E040E069E10994DC01D2
:101F10001696ED91FC9130E020E040E068E10994F4
:101F20009A01DC011696ED91FC91462F67E1099428
:101F3000EF92FF920F931F93CF93DF931F92CDB732
:101F4000DEB77C018B01D8016C91673129F150F427
:101F50006531A0F40F90DF91CF911F910F91FF9009
:101F6000EF9008956A3118F16E3FA1F7F8014181B1
:101F7000498369E2C7010E94400F0BC0F80141810B
:101F80004983D7011696ED91FC9130E020E0C7011E
:101F900009950E5F1F4FD7CFF80181818983AE016C
:101FA0004F5F5F4F61E0C7010E94900FF2CF0F5F5C
:101FB0001F4FD7011696ED91FC9130E020E040E0F4
:101FC000C7010995C0CF462FDC011696ED91FC9113
:101FD00030E020E066E10994462FDC011696ED9191
:101FE000FC9130E020E065E10994EF92FF920F93BD
:101FF0001F93CF93DF93EC01042F79016D3009F427
:1020000046C050F46B30C9F1693009F49FC06A30A2
:1020100009F465C080E05CC06E3009F44BC06F30DD
:1020200099F70E94870FF7011381110F110F110FFC
:102030006C89160F60E4CE010E94EC0F612F62954F
:102040006F706061CE010E94EC0F612F6F70CE0146
:102050000E94E30FF7016481606BCE010E94E30FE1
:10206000F701408151816281660F660F660FCE01D4
:102070000E94900F0150A1F727C065E171E0442351
:1020800011F060E171E0CE010E94980F20C0411173
:1020900009C069E071E00E94980FE881F9818289A6
:1020A0008C8B15C062E071E00E94980FE881F98185
:1020B0008389F6CF0E94870F61E8CE010E94EC0F62
:1020C000602FCE010E94E30FCE010E947E0F81E0BF
:1020D000DF91CF911F910F91FF90EF900895EA85C6
:1020E000FB8530E020E040E068E2CE010995EE811A
:1020F000FF8130E020E040E064E1CE01099541E05D
:102100006BE4CE010E94400FE881F981448169E2CD
:10211000CE010E94400F40E06BE4CE010E94400FD0
:10212000E881F981448169E2CE010E94400F41E0DB
:102130006BE4CE010E94400FE881F981458169E29C
:10214000CE010E94400F6AE171E09DCF8FE491E0E3
:102150009983888382E0A4CFDC011896ED91FC91ED
:1021600030E020E040E069E10994DC011896ED914F
:10217000FC9130E020E040E068E10994CF93DF93E8
:102180001F92CDB7DEB76983BE016F5F7F4F0E949C
:10219000B9060F90DF91CF910895EF92FF921F93B0
:1021A000CF93DF93EC01162F7A010E94B51060E403
:1021B000CE010E94BE10E885F9859701412F67E1A5
:1021C000CE010995CE01DF91CF911F91FF90EF9045
:1021D0000C94AC10EF92FF921F93CF93DF93EC011E
:1021E000142F7901663181F138F4643109F44BC060
:1021F000653179F080E022C06831C9F150F1693170
:10220000C9F78091A302882391F1CE010E94AC10FE
:102210002EC08091A302882319F0CE010E94AC1039
:10222000CE010E94B51060E0CE010E94BE10612F69
:10223000CE010E94BE1081E08093A302DF91CF9176
:102240001F91FF90EF900895642F0E94BE1081E0CF
:10225000F5CF8091A302882319F0CE010E94AC1023
:10226000A701193138F4612FCE010E94CD101092D0
:10227000A302EDCF68E1CE010E94CD10185188E194
:10228000E80EF11CEDCF8E898F3F11F488E78E8B1D
:10229000E885F9859701412F64E1CE01DF91CF9167
:1022A0001F91FF90EF90099490E09C0144E0220F71
:1022B000331F4A95E1F7282B392B2F703F70C90146
:1022C000880F991F880F991F282B392B237333737D
:1022D000C901880F991F822B932B857595759C01D9
:1022E000220F331F822B932B0895CF93DF93EC01A2
:1022F000A889B989FD0134913196949131968491E0
:102300001396FD01A4916317A8F1961798F1631B2A
:10231000770B8A9FE02D1124E69FC001E79F900D67
:102320001124280F392F311D83E0220F331F8A9586
:10233000E1F7C9010496DA01245F3F4FE889F98982
:10234000E80FF91FE491ED93019682179307B1F717
:102350008D89882361F0FA019A01285F3F4F8191AE
:10236000DF01119780958C932E173F07C1F7DF91FE
:10237000CF910895FA01CA0108961192E817F9075A
:10238000E1F7E6CF2F923F924F925F926F927F924A
:102390008F929F92AF92BF92CF92DF92EF92FF9275
:1023A0000F931F93CF93DF93CDB7DEB7A4970FB6EC
:1023B000F894DEBF0FBECDBF082F562EE091E40487
:1023C000F091E504329624912E8F1092EC044B8FFD
:1023D0005C8FE12C81E0860F89A3FE017996FA8F4C
:1023E000E98FEB8DFC8D6191FC8FEB8FE091D60432
:1023F000F091D70484ED94E009958F3F980709F494
:102400006DC08E3F2FEF920761F38F8F8091E404B0
:102410009091E504FC01329624910396FC0184918D
:10242000402E420E880F850D88A319A181E0800FF0
:10243000481608F44EC02D8F712C22242A94210EA8
:10244000672CF02E262DAE014F5E5F4F6F8D84ED11
:1024500094E00E947511CE0141964C015E0199E015
:10246000A90EB11CFE0131966F013A2CBAA2EBA362
:10247000DCA2F40181914F010E945411F501919366
:102480005F01F60181936F01898D9A8D88169906F7
:1024900081F72BA13CA1422D6F2D84ED94E00E9489
:1024A0009106232D3AA1412F6F2D84ED94E00E94D7
:1024B00091066394F394F41428F282E0810F9D8DC9
:1024C000790E1F5FE8A11E1738F0FE8D0F0FE39401
:1024D00088CFF1E0FD8FB0CF182FAFCF8E2DA4960F
:1024E0000FB6F894DEBF0FBECDBFDF91CF911F9125
:1024F0000F91FF90EF90DF90CF90BF90AF909F90A3
:102500008F907F906F905F904F903F902F900895A5
:102510000F931F93CF93DF93CDB7DEB728970FB6F6
:10252000F894DEBF0FBECDBF00ED14E081E0F801EE
:10253000818F8FEA96E0978386834DE951E062E0D0
:1025400080E00E94C211F801118E10921E0464EF07
:1025500071E080E090E00E949707BE016F5F7F4FBF
:1025600088E0FB0111928A95E9F784ED94E00E94DE
:10257000470F28960FB6F894DEBF0FBECDBFDF9190
:10258000CF911F910F9108957F928F929F92AF925A
:10259000BF92CF92DF92EF92FF920F931F93CF9350
:1025A000DF93CDB7DEB728970FB6F894DEBF0FBE26
:1025B000CDBF7C01B62ED42EA22EFC01808991893C
:1025C000FC013296049131961491702E760E140F00
:1025D00081E0860F781608F401E0912C892CCB2C31
:1025E000282DAE014F5F5F4F6A2DC7010E94751104
:1025F0009E012F5F3F4F4D2D6C2DC7010E9491060C
:102600008394C394C71460F3D394900ED11630F31F
:1026100028960FB6F894DEBF0FBECDBFDF91CF91E5
:102620001F910F91FF90EF90DF90CF90BF90AF90F0
:102630009F908F907F900895EF92FF920F931F933A
:10264000CF93DF93F82EE62EE091E404F091E504B9
:102650003296C4911092EC048A01D0E0F8016191A5
:102660008F01E091D604F091D70484ED94E00995B0
:102670008F3F980771F08E3F2FEF920779F3282F45
:102680004E2D6F2D84ED94E00E94C412FC0EDF5F8E
:10269000E5CF8D2FDF91CF911F910F91FF90EF909C
:1026A0000895CF92DF92EF92FF920F931F93CF93F3
:1026B000DF93EC01962F683109F44BC0B9019931D1
:1026C00030F49431C9F0973189F080E006C0993137
:1026D00009F461C09032C9F781E0DF91CF911F9179
:1026E0000F91FF90EF90DF90CF90089550E08CEB2A
:1026F00094E00E946909F0CF8C859D85AE85BF85E9
:10270000892B8A2B8B2B71F4E881F981A585B0E0A8
:1027100020EA36E841E050E00E9451216C877D8735
:102720008E879F871092E6021092E5021092E802CF
:102730001092E7020E94FE088DE399E09093100347
:1027400080930F038EE399E0909314038093130317
:10275000C3CF2C853D854E855F8560E074E284EFB4
:1027600090E00E945C2120513109410951095695A0
:102770004795379527952093B8008E8990E09595D9
:10278000879591E09093C4028093A2021092E80290
:102790001092E702A1CFD091E702D13208F093C0A6
:1027A000C091A2020E9472076B017C0180913703E5
:1027B000811164C082E08093370381E08093390304
:1027C0008FEF8093360310925B03D0935A03A4EAF1
:1027D000B2E0EAE3F3E080E0D8137CC010925C033F
:1027E00080915C03CC0FC82BC0935C0380913803AD
:1027F000813009F073C0109238030E9472076B0198
:102800007C0180915C038093BB008091EA029091EF
:10281000EB02A091EC02B091ED02892B8A2B8B2B5D
:1028200099F00E9472070091EA021091EB02209148
:10283000EC023091ED026C197D098E099F09061793
:10284000170728073907D8F18091BC0083FDD9CF3D
:1028500085EC8093BC000E9472076B017C01809123
:1028600037038230E9F1809136038F3F61F1809127
:102870003603803241F18091360325C08091EA020F
:102880009091EB02A091EC02B091ED02892B8A2B82
:102890008B2B09F48BCF0E9472070091EA021091F2
:1028A000EB022091EC023091ED026C197D098E094A
:1028B0009F09061717072807390708F077CF809177
:1028C000E9020E941C091092E8021092E70210929D
:1028D000C40202CF9D9191938F5F7ECF85EEB9CFD9
:1028E0008091EA029091EB02A091EC02B091ED028E
:1028F000892B8A2B8B2B09F4B2CF0E94720700918F
:10290000EA021091EB022091EC023091ED026C1979
:102910007D098E099F09061717072807390708F050
:102920009ECFCDCF0F931F93CF93DF938C01C62FF4
:10293000642FCC32E8F4CA3208F041C0C83271F1D9
:10294000C93209F442C080E0C034D0F1CF73F8013D
:10295000EC0FF11D868D8F3F91F1C031E0F00E94A8
:10296000EA0621E0892B09F420E0F801218F27C035
:10297000CD3289F140F384EB8C0F823020F7CF7396
:10298000C00FD12FD11D8E8D411133C061E00E9447
:10299000410760E08E8D0E94130711C0025E1F4F39
:1029A000D0E0F80181918F018F3F31F061E0D031AB
:1029B00008F062E00E944107DF5FD63191F781E0C5
:1029C000DF91CF911F910F91089570E090E080E02A
:1029D0000E949707F4CF85E090E0433010F082E04A
:1029E00090E0880F991F880F991F05970197F1F7BD
:1029F000E6CF62E00E944107E2CF1F93CF93DF93BF
:102A0000EC01EC89FD8949AD6A3059F43396E491C3
:102A1000E40FE9AF18AE81E090E0DF91CF911F9114
:102A20000895262F3296149168AD04960E94C41220
:102A3000E8ADE10FE8AFEFCFCF92DF92EF92FF92D8
:102A40000F931F938091CB040E94EA0621E0019727
:102A500009F020E08091CD04281709F443C00E94BA
:102A6000720700919E0210919F022091A002309166
:102A7000A1026B017C01C01AD10AE20AF30A609339
:102A80009E0270939F028093A0029093A102809176
:102A90009D02209100013091010195ECC91699E049
:102AA000D906E104F10410F4813118F13093C9041E
:102AB0002093C8048093CA048091CE049091CF04DF
:102AC00001969093CF048093CE0410929D028DE7DF
:102AD00092E02D55324011F08DE592E09093010186
:102AE000809300011F910F91FF90EF90DF90CF90A6
:102AF000089591E0980F90939D0290E0880F991FA0
:102B0000820F931FFC01D182C082ECCFEF92FF9223
:102B10000F931F93CF93DF93282F30E0F901EE0F2F
:102B2000FF1FEB57F34FA591B4919C91F901E65A21
:102B3000FD4FD081D9279083220F331FF901E95926
:102B4000FE4F0190F081E02D9081D92331F1C82F03
:102B5000CC0FCC0FCC0FF12CE12C01E010E0C80120
:102B60000E2C01C0880F0A94EAF78D2379F0EC2F20
:102B7000EE0DF0E0EE0FFF1FE255FC4F80819181DA
:102B8000892B21F00190F081E02D09958FEFE81A53
:102B9000F80A88E0E816F10411F7DF91CF911F9150
:102BA0000F91FF90EF9008958F929F92AF92BF92F6
:102BB000CF92DF92EF92FF920F931F93CF93DF9309
:102BC000CDB7DEB7A2970FB6F894DEBF0FBECDBF6C
:102BD0000091C8041091C9047E0183E0E80EF11C45
:102BE0006801E0E1CE0ED11CB8EE8B2EB3E09B2E37
:102BF000A12CB12CF801219131918F01032E000CF1
:102C0000440B550B285E334041095109A7E6B6E055
:102C10000E945121A50194010E94322124533F4F6B
:102C20004F4F5F4FF701219331937F01C016D106BB
:102C300009F78B812C818093FA038D819E81277007
:102C4000382F330F330F330F232B2093FB032F81A8
:102C5000388545E0969587954A95E1F78F73922FD1
:102C60009295990F990F907C892B8093FC03C90151
:102C700096958795969587958093FD0389859A8586
:102C800032FB222720F9382F330F232B2093FE030A
:102C90002B853C85880F892F881F990B91958F7004
:102CA000922F9295907F892B8093FF034D855E85AF
:102CB00074E0369527957A95E1F740FB27F9209344
:102CC0000004CA0196958795809301048F859889A1
:102CD000252F26952370382F330F330F232B209366
:102CE000020429893A89F6E096958795FA95E1F7E5
:102CF0008F71922F9295990F907E892B8093030468
:102D0000A3E036952795AA95E1F72093040488E07F
:102D100080931004A2960FB6F894DEBF0FBECDBF0D
:102D2000DF91CF911F910F91FF90EF90DF90CF90A7
:102D3000BF90AF909F908F900895CF92DF92EF92C7
:102D4000FF920F931F93CF93DF936C01EB017B01F5
:102D5000E40EF51E10E000E0CE15DF0561F069918C
:102D6000D601ED91FC910190F081E02DC60109950D
:102D7000080F191FF1CFC801DF91CF911F910F915B
:102D8000FF90EF90DF90CF900895089590E080E05D
:102D9000089585E58093F60389EE93E00E94F6207E
:102DA0008093F70389EE93E00E94F620809754F019
:102DB00084E58093F60389EE93E00E94F62080522A
:102DC0008093F70389EE93E00E94F620803491050A
:102DD00054F083E58093F60389EE93E00E94F62099
:102DE00080548093F7038DEE93E00E94F620809349
:102DF000F80380EF93E00E94F6208093F903089592
:102E000085ED8093BC008091EA029091EB02A09145
:102E1000EC02B091ED020796A11DB11D23E0B6951D
:102E2000A795979587952A95D1F72091BC0024FD09
:102E300003C01092370308954091EA025091EB02CB
:102E40006091EC027091ED02452B462B472B69F304
:102E50000097A105B10541F02AE22A95F1F700C0DB
:102E60000197A109B109E1CF8091E9020C941C09F5
:102E70000F931F93CF93DF9300D0CDB7DEB7209190
:102E80001E04222309F455C027E1289F8001299FB1
:102E9000100D1124B8016F5F7F4F072E000C880BB7
:102EA000990B0E94010CAE014F5F5F4F68E070E02C
:102EB00080EE93E00E94300DB801655F7F4F072ED2
:102EC000000C880B990B0E94010CAE014F5F5F4F05
:102ED00063E070E089EE93E00E94300DB801615F1D
:102EE0007F4F072E000C880B990B0E94010CAE013E
:102EF0004F5F5F4F62E070E08DEE93E00E94300D17
:102F0000B8016E5E7F4F072E000C880B990B0E9454
:102F1000010CAE014F5F5F4F63E070E080EF93E024
:102F20000E94300D0F900F90DF91CF911F910F9164
:102F300008958330910509F45CC0CCF4009731F119
:102F40000297C9F167EB71E080EE93E00E94B02137
:102F500060EC71E089EE93E00E94B02165EC71E0D5
:102F60008DEE93E00E94B02164EC71E038C08430B3
:102F7000910509F44DC0059729F76CEF71E080EEDB
:102F800093E00E94B02165E072E008C066EA71E05B
:102F900080EE93E00E94B0216FEA71E089EE93E049
:102FA0000E94B02165EC71E08DEE93E00E94B021AB
:102FB00063EB71E014C068EC71E080EE93E00E9476
:102FC000B02161ED71E089EE93E00E94B02165EDE2
:102FD00071E08DEE93E00E94B02168ED71E080EF2A
:102FE00093E00F900F90DF91CF911F910F910C9470
:102FF000B0216CED71E080EE93E00E94B02165EEAF
:1030000071E089EE93E00E94B02169EE71E0A8CFF3
:103010006CEE71E080EE93E00E94B02165EF71E00C
:1030200089EE93E00E94B02169EF71E099CF1F9281
:103030000F920FB60F9211242F933F938F939F936C
:10304000AF93BF938091160490911704A091180438
:10305000B09119043091150423E0230F2D3758F552
:103060000196A11DB11D2093150480931604909321
:103070001704A0931804B093190480911A04909136
:103080001B04A0911C04B0911D040196A11DB11D4B
:1030900080931A0490931B04A0931C04B0931D0406
:1030A000BF91AF919F918F913F912F910F900FBE44
:1030B0000F901F90189526E8230F0296A11DB11DB1
:1030C000D2CF1F920F920FB60F9211242F933F93DE
:1030D0004F935F936F937F938F939F93AF93BF9320
:1030E000EF93FF938FE194E00E944808FF91EF91E6
:1030F000BF91AF919F918F917F916F915F914F9110
:103100003F912F910F900FBE0F901F9018951F9217
:103110000F920FB60F9211242F938F939F93EF93DB
:10312000FF93E0912F04F09130048081E091350409
:10313000F091360482FD1BC09081809138048F5F2E
:103140008F7320913904821741F0E0913804F0E048
:10315000E15EFB4F958F80933804FF91EF919F9133
:103160008F912F910F900FBE0F901F901895808117
:10317000F4CF1F920F920FB60F9211242F933F930B
:103180004F935F936F937F938F939F93AF93BF936F
:10319000EF93FF938091B900887F803609F44AC08D
:1031A000F0F5883209F4A7C018F5803109F49BC006
:1031B000B8F4882309F4F9C0883009F494C0FF9169
:1031C000EF91BF91AF919F918F917F916F915F919F
:1031D0004F913F912F910F900FBE0F901F90189518
:1031E000883109F488C0803251F78093360314C0C7
:1031F000803409F49DC040F48033B9F38833F9F684
:103200008093360385ECB0C0803509F485C08835DD
:1032100009F496C0883499F60E940017D0CF8839F7
:1032200009F48CC038F5883729F050F4883611F04D
:10323000803729F683E0809337031092350357C017
:10324000883809F47BC0803919F0803809F0B7CF8D
:1032500080913503803208F071C0E091350381E040
:103260008E0F809335038091BB00F0E0EB5EFC4F46
:1032700080833DC0803B39F0E0F4803A09F479C0A6
:10328000883A09F09CCF84E08093370310921203B0
:1032900010921103E0910F03F091100309958091B2
:1032A000110381110FC081E0809311031092EF028E
:1032B00009C0803C09F4A6CF883C09F4A3CF883B21
:1032C00009F07DCFE091120381E08E0F809312030D
:1032D000F0E0E151FD4F80818093BB00909112039B
:1032E0008091110329C080915C038093BB0085EC21
:1032F0008093BC0064CF90915B0380915A03981730
:1033000058F5E0915B0381E08E0F80935B03F0E062
:10331000E65CFC4F8081E9CFE0915B0381E08E0F9A
:1033200080935B038091BB00F0E0E65CFC4F808300
:1033300090915B0380915A039817C8F285E8D8CF23
:10334000E0915B0381E08E0F80935B038091BB0073
:10335000F0E0E65CFC4F80838091390381115CCF03
:1033600081E08093380384EA8093BC001092370395
:1033700026CF85EC8093BC001092370380913503F3
:10338000803230F4E0913503F0E0EB5EFC4F1082C8
:103390006091350370E0E0911303F091140385E12F
:1033A00093E00995109235030ACF1092360334CF7B
:1033B0001F920F920FB60F9211242F933F934F93AA
:1033C0005F936F937F938F939F93AF93BF93EF938D
:1033D000FF9382E00E948615FF91EF91BF91AF911C
:1033E0009F918F917F916F915F914F913F912F911D
:1033F0000F900FBE0F901F9018951F920F920FB64F
:103400000F9211242F933F934F935F936F937F936A
:103410008F939F93AF93BF93EF93FF9381E00E94AD
:103420008615FF91EF91BF91AF919F918F917F9101
:103430006F915F914F913F912F910F900FBE0F9021
:103440001F9018951F920F920FB60F9211242F9371
:103450003F934F935F936F937F938F939F93AF931C
:10346000BF93EF93FF9380E00E948615FF91EF9149
:10347000BF91AF919F918F917F916F915F914F918C
:103480003F912F910F900FBE0F901F901895CF93E3
:10349000109222041092210488EE93E0A0E0B0E0A4
:1034A0008093230490932404A0932504B0932604CE
:1034B00021E731E03093200420931F0425EC30E015
:1034C00030932C0420932B0424EC30E030932E0412
:1034D00020932D0420EC30E03093300420932F040F
:1034E00021EC30E0309332042093310422EC30E0C0
:1034F000309334042093330426EC30E030933604C8
:1035000020933504109238041092390410923A0432
:1035100010923B041092BF041092BE048093C0042A
:103520009093C104A093C204B093C30483E891E0D4
:103530009093BD048093BC041092CA041092CC04F2
:103540001092CB041092CD041092CF041092CE04AE
:103550001092D3041092D20410920805109209051B
:1035600085E991E09093D1048093D0041092D50422
:103570001092D4041092E9041092EC041092E0042A
:103580001092E1041092E2041092E3048FEF809312
:10359000EA048093EE04E2EFF4E088E095E0CFEFF8
:1035A000C1938E179F07E1F785EF9FE09093D904B1
:1035B0008093D8048AEE90E19093DB048093DA0440
:1035C00081E593E19093DD048093DC0482E994E14A
:1035D0009093DF048093DE0430E020E040E069E077
:1035E00084ED94E00E94F50FC093FD04C093FE04A7
:1035F000C093FF04CF910895CF93DF93CDB7DEB78B
:10360000C654D1090FB6F894DEBF0FBECDBF789473
:1036100084B5826084BD84B5816084BD85B58260D7
:1036200085BD85B5816085BD80916E008160809388
:103630006E001092810080918100826080938100F1
:103640008091810081608093810080918000816001
:10365000809380008091B10084608093B10080915C
:10366000B00081608093B00080917A008460809384
:103670007A0080917A00826080937A0080917A004B
:10368000816080937A0080917A00806880937A00CC
:103690001092C100E091D804F091D90430E020E00C
:1036A00040E06AE084ED94E009958E010F5F1F4FC2
:1036B000780188E0D8011D928A95E9F7B80184ED78
:1036C00094E00E94470FE091D804F091D90430E0D3
:1036D00020E040E06BE084ED94E0099588E690E01E
:1036E0009093E5048093E404E0912F04F09130047A
:1036F00082E08083E0912B04F0912C041082E09111
:103700002D04F0912E0483E1808310923704E09120
:103710003304F09134048EE28083E0913104F0911F
:103720003204808180618083E0913104F091320421
:10373000808188608083E0913104F091320480813F
:1037400080688083E0913104F091320480818F7D24
:1037500080831092DF031092DE0380915D03882343
:1037600009F12A991FC080E00E94370A80E00E9478
:10377000370A0E943C0A8F71853089F409E813E109
:1037800040E9C42EDD24D3940E943C0A8F3F39F0D7
:103790000150110921F0C6010197F1F7F5CF2A9ADE
:1037A0000E943C0A2A9A229A239A259A229A83E511
:1037B0008CBD1DBC2A9A1AE00E943C0A1150E1F708
:1037C00040E050E0BA0180E40E94410A182F8130A5
:1037D00009F41FC210E010935D032A9A0E943C0A6C
:1037E000112309F485C240E050E0BA01C7010E94EC
:1037F000E70A412C512C32018130D1F400E110E074
:103800002EEB31E040E050E0BA01C7010E948D0A82
:10381000892B09F06DC28D81882309F469C249841E
:103820005A846B847C84B301A201C7010E94E70A19
:10383000833009F45DC281115BC204E210E02DE027
:1038400030E0B301A201C7010E948D0A892B09F063
:103850004FC22A853B8550E040E0211531054105E6
:10386000510521F4288D398D4A8D5B8DAC81B0E0F6
:103870000E94512125966CAF7DAF8EAF9FAF2597EB
:103880004A815B8170E060E063015201A40EB51EC5
:10389000C61ED71EA0928E03B0928F03C0929003D3
:1038A000D09291032981209386034D805E805092AF
:1038B0008903409288038F819885B0E0A0E000974B
:1038C000A105B10521F48C899D89AE89BF8904E0E9
:1038D000569447940A95E1F7712C612C841B950B43
:1038E000A60BB70B25964CAD5DAD6EAD7FAD2597A4
:1038F000841B950BA60BB70BBC01CD016419750990
:103900008609970930E050E040E00E945C21DA012E
:10391000C9010296A11DB11D80938A0390938B0368
:10392000A0938C03B0938D0361E0873F7FE09707FE
:10393000A105B10508F060E0265F3F40410951094B
:103940002F3F3F4E4105510508F448C4873FFFEF24
:103950009F07A105B10508F4B9C183E080938403F2
:1039600088A199A1AAA1BBA18093920390939303EC
:10397000A0939403B09395034A0C5B1C6C1C7D1CB4
:1039800025960CAD1DAD2EAD3FAD2597400E511EB9
:10399000621E731E409296035092970360929803A2
:1039A000709299031092850384E893E09093DF036B
:1039B0008093DE030091DE031091DF0301151105F2
:1039C000B9F1CE01859690937703809376034FEB00
:1039D00051E0B70184E793E00E946E0E892B41F518
:1039E00089818823F9F08C8584FF22C0D8018C91CD
:1039F000833009F080C18D899E89B0E0A0E0DC01B0
:103A0000992788274B8D5C8D70E060E0842B952B87
:103A1000A62BB72B8093780390937903A0937A0316
:103A2000B0937B0384E793E00E94F009892B11F0A7
:103A30000E9488126E01B5E2CB0ED11C5E01E9E056
:103A4000AE0EB11CFEE27F2E8091DE039091DF036B
:103A5000892B09F497C0D0927703C092760383E054
:103A600090E04091800350918103609182037091B6
:103A70008303411551056105710509F440C1209189
:103A80007403309175032F703327E5E0220F331F45
:103A9000EA95E1F700E210E0C7010E948D0A892B48
:103AA00009F033C18981882309F432C1853E29F0A8
:103AB0008E3219F08C8583FF11C084E793E00E9459
:103AC000F80D009771F2109280031092810310920A
:103AD000820310928303039709F054C080918003FE
:103AE00090918103A0918203B0918303892B8A2B4B
:103AF0008B2B09F407C1D701E7E6F3E08D91803203
:103B000059F0853009F485EE9F012F5F3F4F808388
:103B1000F901AA15BB0591F78985DF01803269F0AB
:103B20007082129681838A85803239F01196828361
:103B30008B85803211F0119683838C858093660388
:103B40004D8D5E8D6F8D78A140935E0350935F0322
:103B50006093600370936103898D9A8D90936303E2
:103B6000809362038F89988D90936503809364039B
:103B70001C9284E793E00E94F80D8330910521F0B8
:103B8000892B11F00E94881280916703882381F0AD
:103B900069E072E087E693E00E94A721892B09F093
:103BA00053CF80905E0390905F0381E080931E046A
:103BB000C40167E170E00E948D217093F50360936A
:103BC000F40380911E04811106C086E090E090937A
:103BD000F5038093F40362E082E00E944107E1EA8A
:103BE000FCE09491EDE8FCE08491882309F4B2C0F4
:103BF0008250A82FB0E0AA0FBB1FA959BE4F4D910C
:103C00005C91392F20E0323008F485C036952F5F63
:103C1000FACF4AEA51E060E070E088E40E94410A8D
:103C2000813081F567015E01B5E0AB0EB11C870103
:103C30000E943C0AF80181938F01EA15FB05C1F748
:103C40008B81813009F0C6CD8C818A3A09F0C2CDD2
:103C500020E1A22E27E2B22E30E9632E772473945E
:103C600040E050E060E070E489EE0E94410A882361
:103C700009F493C2C3010197F1F7F1E0AF1AB1085B
:103C800079F7A8CD40E050E0BA0189EE0E94410AE0
:103C900001E4823010F412E009EE80E1C82E87E2E0
:103CA000D82E90E9A92EBB24B39440E050E0BA018D
:103CB000802F0E94410A882309F485C2C50101971B
:103CC000F1F7B1E0CB1AD10881F784CD873F9F404F
:103CD000A105B10568F46093840325968CAD9DAD74
:103CE000AEADBFAD25978A0D9B1DAC1DBD1D3CCE55
:103CF0000E9488125FCE80E090E0DC0183CE0097C6
:103D000009F0E1CEA7E6B3E033CF81E090E0DBCE6F
:103D100083E090E0D8CEA82FAA0FAA0FAA0FA20F77
:103D2000B0E0AA0FBB1FA255BC4F2CE135E11196A4
:103D30003C932E93DA01EC91E92BEC93909168007F
:103D400021E030E001C0220F8A95EAF7892F822B0B
:103D5000809368001092CA0482E090E09093CC04B3
:103D60008093CB041092CD046CEB72E080E090E085
:103D70000E94970790E080E00E941C21682E712C21
:103D80008091F4039091F5038615970508F43C01A2
:103D900080911E04882309F442C00091DE03109133
:103DA000DF0301151105D9F1F8011182CE01C59685
:103DB00098A78FA349E052E0B70140970E946E0E8A
:103DC000892B69F58981882351F18C8584FD27C071
:103DD000D8018C91833009F06AC18D899E89B0E049
:103DE000A0E0DC01992788274B8D5C8D70E060E0B6
:103DF000842B952BA62BB72BF801868F978FA0A32A
:103E0000B1A38D8D9E8DAF8DB8A1828F938FA48F1E
:103E1000B58F168A178A108E118E81E08183C301B7
:103E20000E943817E091C804F091C9048CED95E028
:103E3000208131818C01021B130B23961FAF0EAF23
:103E40002397228133818C01021B130B27961FAF0E
:103E50000EAF27978FEA96E09093D7048093D6040D
:103E600042E152E060E080E00E941C138301F12CEB
:103E7000E12C512C312C442443944FEAC42E46E0CB
:103E8000D42EE091C804F091C904A080B18023969B
:103E90002EAD3FAD2397A20EB31EC5018F509640A5
:103EA000823C9140A0F4311012C08091F4039091B3
:103EB000F50301970817190708F065C10F5F1F4F39
:103EC000C8010E943817F12CE12C33243394C5012A
:103ED000885E9340823C914068F431100BC010160C
:103EE00011060CF053C101501109C8010E94381786
:103EF000F12CE12C5BEAA51A55E0B50A64E6A6169A
:103F0000B10408F4312CD092D704C092D60440EE0C
:103F100053E064E080E00E94C211E091C804F09197
:103F2000C904A280B38027968EAD9FAD2797A80EB7
:103F3000B91EC5018F509640823C914008F02BC1BC
:103F4000511029C14092E904D092D704C092D604FE
:103F50004BE152E060E080E00E941C131092E90403
:103F6000F12CE12C9924939455245394C5018B5A38
:103F700095408436910508F4512CB8EEAB1AB3E0A5
:103F8000BB0A22242394E2ECAE16E1E0BE06F0F474
:103F9000252C51101BC04092E904D092D704C09246
:103FA000D60444E252E060E080E00E941C1340929C
:103FB000E904D092D704C092D60440EE53E064E006
:103FC00080E00E94C2111092E904212C992009F48A
:103FD00040C04092E904D092D704C092D6044DE28A
:103FE00052E060E080E00E941C131092E9040E94FD
:103FF000C9168091F70380588093F703F8E0F09397
:10400000100432EEA32E34E0B32E26EF822E23E0EE
:10401000922ED4016D914D018FE194E00E946A08C7
:10402000E1E1F4E0E815F905A1F767E070E080E070
:1040300090E00E949707F1E0AF1AB10831F7D092F3
:10404000D704C092D60442E152E060E080E00E94D2
:104050001C1368EC70E080E090E00E9497072FEF5F
:10406000E21AF20A3FE1E316F1042CF1DD24D394C5
:10407000D092E9049FEAE92E96E0F92EF092D70457
:10408000E092D60444E252E060E080E00E941C131B
:10409000D092E904F092D704E092D60440EE53E0C7
:1040A00064E080E00E94C2111092E90406C080E042
:1040B00090E0DC0199CE2110E4CE6016710629F063
:1040C000602F90E080E00E9424210E94C9162FB743
:1040D000F8948091160490911704A0911804B0915F
:1040E00019042FBF8093110490931204A09313041A
:1040F000B09314040E94D4150E94C91680E0E82EE3
:1041000080E0F82E2FB7F894809116049091170450
:10411000A0911804B09119042FBF4091110450913F
:10412000120460911304709114048C019D01041B0E
:10413000150B260B370BB901A80147305105610556
:104140007105B8F08093110490931204A0931304A6
:10415000B09314040E94D41506EF13E0D8016D91BA
:104160008D018FE194E00E946A08B4E001311B07E1
:10417000A9F7E114F10431F20E943408882311F206
:104180000E940000BFCF10E000E09ACE0091F4033F
:104190001091F503A8CE912CE9CE40E050E0BA0191
:1041A0008AE70E94410A811115CB0E943C0AD60180
:1041B0008D936D010A171B07C1F789811CE086FDED
:1041C0000ACB14E008CB40E052E060E070E080E50C
:1041D0000E94410A882309F4FECAFCCA62E0873FB4
:1041E0009F4FA105B10508F476CDB7CBFC01882718
:1041F0009927E89421912032E9F3293010F02E30EC
:10420000C8F32B3241F02D3239F4689404C00E9477
:104210001421820F911D219120532A30C0F31EF4E6
:10422000909581959F4F08957AE0979F902D879F55
:10423000802D910D11240895F999FECF92BD81BD75
:10424000F89A992780B50895262FF999FECF1FBABD
:1042500092BD81BD20BD0FB6F894FA9AF99A0FBEAF
:1042600001960895052E97FB1EF400940E944921A3
:1042700057FD07D00E945C2107FC03D04EF40C943C
:10428000492150954095309521953F4F4F4F5F4FB5
:10429000089590958095709561957F4F8F4F9F4FB2
:1042A00008950E947E21A59F900DB49F900DA49F1C
:1042B000800D911D11240895A1E21A2EAA1BBB1B8B
:1042C000FD010DC0AA1FBB1FEE1FFF1FA217B307E2
:1042D000E407F50720F0A21BB30BE40BF50B661FF8
:1042E000771F881F991F1A9469F7609570958095BC
:1042F00090959B01AC01BD01CF010895A29FB00133
:10430000B39FC001A39F700D811D1124911DB29F09
:10431000700D811D1124911D0895AA1BBB1B51E135
:1043200007C0AA1FBB1FA617B70710F0A61BB70B25
:10433000881F991F5A95A9F780959095BC01CD01CA
:104340000895EE0FFF1F0590F491E02D0994FB01F5
:10435000DC018D91019080190110D9F3990B08951A
:10436000FB01DC0101900D920020E1F70895F89423
:02437000FFCF7D
:104372005D021815A015C019FF1815A115C819FF5F
:104382001815AE19FF1815AF19FF1815AE15D51669
:104392008015A8163F15D316001540158D16141555
:1043A20020160015A115C815DA1612158116CF159B
:1043B200D916F115DB1640152E15A415A619FF0006
:1043C20001140A6464323200093D00000428961088
:1043D200080202800040006B006C006D00000000CB
:1043E200006A08CA07F707B708280806081A08006B
:1043F20000000096096909C6163F0962094F094083
:104402000900000000FD149D16C616C5164E6F5316
:1044120044204D6F64004652534B592044200030D3
:104422003033003235320020204B4453202020000C
:10443200303234003030300020434F524F4E412052
:1044420000303337003136003235340041464844BB
:104452005332412000303238003137002044534D6E
:104462005820202000303036003438004652534B5A
:1044720059205220003031350050524F542E54589A
:10448200540050726F746F636F6C0042696E64699E
:104492006E672E00466C69676874204D0042696E33
:0644A20064696E67000072
:00000001FF
